const pinModelMock = {
    _id: '67e4a072c6c38bb499f9f1bc',
    validClaim: true,
    dataPinned: true,
    address: 'bitcoincash:qqs2wrahl6azn9qdyrmp9ygeejqvzr8ruv7e9m30fr',
    downloadTries: 0,
    proofOfBurnTxid: 'be4b63156c93f58ed311d403d9f756deda9abbc81d0fef8fbe5d769538b4261c',
    cid: 'bafybeied3zdwdiro7fqytyha2yfband4lwcrtozmf6shynylt3kexh26dq',
    filename: 'mutable-67ccefcca67097473e78ca10.json',
    claimTxid: 'c71e2f2cdf8658d90c61ac6183b8ffeeb359779807b317386044705d8352f0f2',
    pobTxDetails: {
        txid: 'be4b63156c93f58ed311d403d9f756deda9abbc81d0fef8fbe5d769538b4261c',
        hash: 'be4b63156c93f58ed311d403d9f756deda9abbc81d0fef8fbe5d769538b4261c',
        version: 2,
        size: 472,
        locktime: 0,
        vin: [
            {
                txid: '2018a97e032cd37e0dc6993fe71cc797226fd0c79b7cb154c3defd81e4f8a219',
                vout: 1,
                scriptSig: {
                    asm: '3045022100bb3351f77ebbad677f8b4720e418da33fb6c913621902f63f506bc0963f4ba3e0220246e28b8ede24d32beb895569f5aa5dd7d0f34dc1555c6adb56d07d7554e8607[ALL|FORKID] 02d20191e9208643b32ff7c8894027428d7d46c2a45abd12cf7ad56a1ab914526d',
                    hex: '483045022100bb3351f77ebbad677f8b4720e418da33fb6c913621902f63f506bc0963f4ba3e0220246e28b8ede24d32beb895569f5aa5dd7d0f34dc1555c6adb56d07d7554e8607412102d20191e9208643b32ff7c8894027428d7d46c2a45abd12cf7ad56a1ab914526d'
                },
                sequence: 4294967295,
                address: 'bitcoincash:qqs2wrahl6azn9qdyrmp9ygeejqvzr8ruv7e9m30fr',
                value: 0.00000546,
                tokenQtyStr: '8.81494242',
                tokenQty: 8.81494242,
                tokenId: '38e97c5d7d3585a2cbf3f9580c82ca33985f9cb0845d4dcce220cb709f9538b0'
            },
            {
                txid: '51e2f68bfd23da17d5517c267d6737505c8a6457062d9f29d808cd757a0522f1',
                vout: 1,
                scriptSig: {
                    asm: '3045022100b257a14381a073885ff24600adb3169d1d598cc7a3e18b816c210ac65ac73d6902205e2784a15724530ddfa174897d86fb5e3117460447e404ae95ce5d023f34ea04[ALL|FORKID] 02d20191e9208643b32ff7c8894027428d7d46c2a45abd12cf7ad56a1ab914526d',
                    hex: '483045022100b257a14381a073885ff24600adb3169d1d598cc7a3e18b816c210ac65ac73d6902205e2784a15724530ddfa174897d86fb5e3117460447e404ae95ce5d023f34ea04412102d20191e9208643b32ff7c8894027428d7d46c2a45abd12cf7ad56a1ab914526d'
                },
                sequence: 4294967295,
                address: 'bitcoincash:qqs2wrahl6azn9qdyrmp9ygeejqvzr8ruv7e9m30fr',
                value: 0.02420651,
                tokenQty: 0,
                tokenQtyStr: '0',
                tokenId: null
            }
        ],
        vout: [
            {
                value: 0,
                n: 0,
                scriptPubKey: {
                    asm: 'OP_RETURN 5262419 1 1145980243 38e97c5d7d3585a2cbf3f9580c82ca33985f9cb0845d4dcce220cb709f9538b0 7014650212572463104',
                    hex: '6a04534c500001010453454e442038e97c5d7d3585a2cbf3f9580c82ca33985f9cb0845d4dcce220cb709f9538b00800000000340b5961',
                    type: 'nulldata'
                },
                tokenQty: null,
                tokenQtyStr: null
            },
            {
                value: 0.00000546,
                n: 1,
                scriptPubKey: {
                    asm: 'OP_DUP OP_HASH160 20a70fb7feba29940d20f6129119cc80c10ce3e3 OP_EQUALVERIFY OP_CHECKSIG',
                    hex: '76a91420a70fb7feba29940d20f6129119cc80c10ce3e388ac',
                    reqSigs: 1,
                    type: 'pubkeyhash',
                    addresses: [
                        'bitcoincash:qqs2wrahl6azn9qdyrmp9ygeejqvzr8ruv7e9m30fr'
                    ]
                },
                tokenQtyStr: '8.73159009',
                tokenQty: 8.73159009
            },
            {
                value: 0.00002,
                n: 2,
                scriptPubKey: {
                    asm: 'OP_DUP OP_HASH160 203b64bfbaa9e58333295b621159ddebc591ecb1 OP_EQUALVERIFY OP_CHECKSIG',
                    hex: '76a914203b64bfbaa9e58333295b621159ddebc591ecb188ac',
                    reqSigs: 1,
                    type: 'pubkeyhash',
                    addresses: [
                        'bitcoincash:qqsrke9lh257tqen99dkyy2emh4uty0vky9y0z0lsr'
                    ]
                },
                tokenQty: null,
                tokenQtyStr: null
            },
            {
                value: 0.02417808,
                n: 3,
                scriptPubKey: {
                    asm: 'OP_DUP OP_HASH160 20a70fb7feba29940d20f6129119cc80c10ce3e3 OP_EQUALVERIFY OP_CHECKSIG',
                    hex: '76a91420a70fb7feba29940d20f6129119cc80c10ce3e388ac',
                    reqSigs: 1,
                    type: 'pubkeyhash',
                    addresses: [
                        'bitcoincash:qqs2wrahl6azn9qdyrmp9ygeejqvzr8ruv7e9m30fr'
                    ]
                },
                tokenQty: null,
                tokenQtyStr: null
            }
        ],
        hex: '020000000219a2f8e481fddec354b17c9bc7d06f2297c71ce73f99c60d7ed32c037ea91820010000006b483045022100bb3351f77ebbad677f8b4720e418da33fb6c913621902f63f506bc0963f4ba3e0220246e28b8ede24d32beb895569f5aa5dd7d0f34dc1555c6adb56d07d7554e8607412102d20191e9208643b32ff7c8894027428d7d46c2a45abd12cf7ad56a1ab914526dfffffffff122057a75cd08d8299f2d0657648a5c5037677d267c51d517da23fd8bf6e251010000006b483045022100b257a14381a073885ff24600adb3169d1d598cc7a3e18b816c210ac65ac73d6902205e2784a15724530ddfa174897d86fb5e3117460447e404ae95ce5d023f34ea04412102d20191e9208643b32ff7c8894027428d7d46c2a45abd12cf7ad56a1ab914526dffffffff040000000000000000376a04534c500001010453454e442038e97c5d7d3585a2cbf3f9580c82ca33985f9cb0845d4dcce220cb709f9538b00800000000340b596122020000000000001976a91420a70fb7feba29940d20f6129119cc80c10ce3e388acd0070000000000001976a914203b64bfbaa9e58333295b621159ddebc591ecb188ac90e42400000000001976a91420a70fb7feba29940d20f6129119cc80c10ce3e388ac00000000',
        blockhash: '00000000000000000076edd435578beefda16c628e0bc39b21b47700f4e4a538',
        confirmations: 311,
        time: 1741484217,
        blocktime: 1741484217,
        blockheight: 888692,
        isSlpTx: true,
        tokenTxType: 'SEND',
        tokenId: '38e97c5d7d3585a2cbf3f9580c82ca33985f9cb0845d4dcce220cb709f9538b0',
        tokenType: 1,
        tokenTicker: 'PSF',
        tokenName: 'Permissionless Software Foundation',
        tokenDecimals: 8,
        tokenUri: 'psfoundation.cash',
        tokenDocHash: '',
        isValidSlp: true
    },
    claimTxDetails: {
        txid: 'c71e2f2cdf8658d90c61ac6183b8ffeeb359779807b317386044705d8352f0f2',
        hash: 'c71e2f2cdf8658d90c61ac6183b8ffeeb359779807b317386044705d8352f0f2',
        version: 2,
        size: 338,
        locktime: 0,
        vin: [
            {
                txid: 'be4b63156c93f58ed311d403d9f756deda9abbc81d0fef8fbe5d769538b4261c',
                vout: 3,
                scriptSig: {
                    asm: '3045022100e18917d1cf48ca011fac916ccfe6107f44df15aec510492d99793e03449494f90220450025394df24136a42b691e0c927b01001ebe1fc7cb6e8079340c989f8e73a6[ALL|FORKID] 02d20191e9208643b32ff7c8894027428d7d46c2a45abd12cf7ad56a1ab914526d',
                    hex: '483045022100e18917d1cf48ca011fac916ccfe6107f44df15aec510492d99793e03449494f90220450025394df24136a42b691e0c927b01001ebe1fc7cb6e8079340c989f8e73a6412102d20191e9208643b32ff7c8894027428d7d46c2a45abd12cf7ad56a1ab914526d'
                },
                sequence: 4294967295,
                address: 'bitcoincash:qqs2wrahl6azn9qdyrmp9ygeejqvzr8ruv7e9m30fr',
                value: 0.02417808
            }
        ],
        vout: [
            {
                value: 0,
                n: 0,
                scriptPubKey: {
                    asm: 'OP_RETURN 20736 be4b63156c93f58ed311d403d9f756deda9abbc81d0fef8fbe5d769538b4261c 626166796265696564337a64776469726f376671797479686132796662616e64346c776372746f7a6d66367368796e796c74336b65786832366471 6d757461626c652d3637636365666363613637303937343733653738636131302e6a736f6e',
                    hex: '6a040051000020be4b63156c93f58ed311d403d9f756deda9abbc81d0fef8fbe5d769538b4261c3b626166796265696564337a64776469726f376671797479686132796662616e64346c776372746f7a6d66367368796e796c74336b65786832366471256d757461626c652d3637636365666363613637303937343733653738636131302e6a736f6e',
                    type: 'nulldata'
                }
            },
            {
                value: 0.02417308,
                n: 1,
                scriptPubKey: {
                    asm: 'OP_DUP OP_HASH160 20a70fb7feba29940d20f6129119cc80c10ce3e3 OP_EQUALVERIFY OP_CHECKSIG',
                    hex: '76a91420a70fb7feba29940d20f6129119cc80c10ce3e388ac',
                    reqSigs: 1,
                    type: 'pubkeyhash',
                    addresses: [
                        'bitcoincash:qqs2wrahl6azn9qdyrmp9ygeejqvzr8ruv7e9m30fr'
                    ]
                }
            }
        ],
        hex: '02000000011c26b43895765dbe8fef0f1dc8bb9adade56f7d903d411d38ef5936c15634bbe030000006b483045022100e18917d1cf48ca011fac916ccfe6107f44df15aec510492d99793e03449494f90220450025394df24136a42b691e0c927b01001ebe1fc7cb6e8079340c989f8e73a6412102d20191e9208643b32ff7c8894027428d7d46c2a45abd12cf7ad56a1ab914526dffffffff020000000000000000896a040051000020be4b63156c93f58ed311d403d9f756deda9abbc81d0fef8fbe5d769538b4261c3b626166796265696564337a64776469726f376671797479686132796662616e64346c776372746f7a6d66367368796e796c74336b65786832366471256d757461626c652d3637636365666363613637303937343733653738636131302e6a736f6e9ce22400000000001976a91420a70fb7feba29940d20f6129119cc80c10ce3e388ac00000000',
        blockhash: '00000000000000000076edd435578beefda16c628e0bc39b21b47700f4e4a538',
        confirmations: 2539,
        time: 1741484217,
        blocktime: 1741484217,
        isValidSlp: false
    },
    tokensBurned: 0.08335233,
    recordTime: 1743036530294,
    __v: 0
}

export default { pinModelMock }
